:020000040000FA
:060000000217D8020A8875
:03001300020B4499
:03002B0002156952
:03003300020CD2EA
:03003B00020B991C
:030053000209BDE2
:03005B000212DBB3
:030063000212FC8A
:03006B00020C780C
:03007B00020CA9CB
:10008300020A1C010020FD0002019405000000018A
:100093004A1D5C1D0000621D681D000000006E1DEE
:1000A300861D8C1D921D000000000000000001024F
:1000B3000408102040800801FF0D01010401FEFF28
:1000C3000000000000000006FFFFFFFFFFFFFF012D
:1000D30001010400C51A000000E8030000FFFF3D12
:1000E3001BE803000064006400B801A0BB0D00A07E
:1000F300BB0D00020200F8FF0705021E0401051EE6
:1001030002051E020A0A01010808010310270280E2
:100113003E0102FEFFE8030A050001FFFF010A1486
:1001230001E0C503423F1A51123FF304B53F0000FB
:10013300803E010105030101FF0F10FEFFC93D00D1
:10014300000000613D00000000FF000000FF00C050
:1001530082C083E9FA5407F8743628F582E4341E22
:10016300F583E0F879006022EAC4540F5403600871
:1001730014600914600D8012E5808002E5905870C8
:10018300078007E5A0586002790102027BC082C0A4
:1001930083120280400478008003120338E8F4FCE1
:1001A300EB600814601214601C802BEA6005E842BF
:1001B300808023EC5280801EEA6005E8429080161E
:1001C300EC52908011E8C39420500BEA6005E8429A
:1001D300A08003EC52A002027BC082C08312028083
:1001E300400478008003120338E8F4FCE87003024B
:1001F300027BEB600814602C146050807BEC52F39C
:1002030074016A601274026A601574046A7003E808
:10021300428FE842FD806153F7DFEC528F80F34356
:10022300F72080F6EC52F474016A601274026A607B
:100233001574046A7003E842F6E842FE803A53F705
:10024300BFEC52F680F343F74080F6E8C3942050A6
:1002530027EC52F574016A601274026A6015740423
:100263006A7003E842F7E842FF800D53F77FEC52D0
:10027300F780F343F78080F6D083D08222E9C45419
:100283000F5403FB743F59C394302274F8120ECEFB
:10029300E9C4540F5403FE743F59C39430400478A7
:1002A300008003120338E8F4FBE86077EE6008147B
:1002B300602B14604E806CEB52F352FD74016A6044
:1002C3000F74026A600F74046A7058E8428F805397
:1002D30053F7DF800343F720EB528F8046EB52F452
:1002E30052FE74016A600F74026A600F74046A70CC
:1002F30032E842F6802D53F7BF800343F740EB52B9
:10030300F68020E8C39420501AEB44E0FB52F552E8
:10031300FF74016A601274026A601574046A7003E0
:10032300E842F77F0102125C53F77FEB52F780F349
:1003330043F78080F6E95407FC74362CF582E434E5
:100343001EF583E0F822C082C08312028040047845
:10035300008003120338E8F4FCE86038EB6008140B
:10036300601214601C802DEA6005E842FD8025ECD4
:1003730052FD8020EA6005E842FE8018EC52FE80C0
:1003830013E8C39420500DEA6005E842FF8005742A
:10039300E04C52FF02027BC082C083120280400401
:1003A30078008003120338E8F4FCE8603FEB600850
:1003B3001460151460228034EA6005E842808003EB
:1003C300EC5280E842FD8024EA6005E84290800315
:1003D300EC5290E842FE8014E8C39420500EEA6089
:1003E30005E842A08003EC52A0E842FF02027B74BE
:1003F3003F59C394305042E9C4540F540360071467
:100403006013146020227801E8F4FBEA602414608E
:100413001814601922740F59C3940450047802808D
:10042300E7780480E3780880DFE8428C22E58C5883
:100433006004EB528C22E8428C221217E8601D12F2
:1004430017F77005191919801A121679701F1216E9
:1004530051C37003E6673319191940071818182296
:1004630008080874FFF618F618F618F62212165143
:10047300601712189D702192F01218A67019501768
:1004830020F014080808090909E7F61819E7F6180F
:1004930019E7F61819E7F6221218A660E6E869705C
:1004A3001F0808E62480F608E436F618547FB47F64
:1004B3000CE654806007F6E418F618F622181822A2
:1004C300E9C6CC08C6CD08C6CE08C6CFC0E0E8C092
:1004D300E0EAC0E0EBC0E009E9F809E7FA09E7FB65
:1004E300E6F918E6F8C3EC98ED99EE9AEBC2E7F556
:1004F300F0EFC2E795F0500E600CEBCFFBEACEFABB
:10050300E9CDF9E8CCF8EAA2E7D2E7FAEB33FB133B
:10051300F5F0EEA2E7D2E7FEEF33FFC5F013A2E753
:1005230030E601B313C5F0C3C0E0C0F07F00C39B46
:10053300FB605E9418600F401D14601AD0E023F92D
:10054300D0E0F802061E8AF0E9486003D2F0E4AF77
:10055300F0FAF9F8803BEB30E40D89F0EA6003D25E
:10056300F0E4AFF0F9CAF8EB30E30D88F0EF600286
:10057300D2F0AFF0E4CAC9F8EB54076014FBC3EA46
:1005830013FAE913F9E813F8EF135002D2E0FFDB93
:10059300EDD0E0C0E030E739C3E49FFFF5F0EC981D
:1005A300FC42F0ED99FD42F0EE9AFE42F0D0E0F904
:1005B300D0E0F8E5F0607AE923F9EE20E742D802CB
:1005C3008067C3EF33FFEC33FCED33FDEE33FE8086
:1005D300EAEC28FCED39FDEE3AFED0E023F9D0E059
:1005E300F84002801BC3EE13FEED13FDEC13FCEF8A
:1005F300135002D2E0FF08B800067F7F74FF802EFD
:10060300EF3350178CF020F00260100CBC000C0D7F
:10061300BD00080EBE000408E860DFE933E813FFFD
:10062300EE2313FE4F4D4C8008E95480FFE4FEFD9A
:10063300FCEE33EF33F47004FCFD7E80D0E0FBD09E
:10064300E0FAD0E0F8D0E0CFC618CEC618CDC61871
:10065300CCC6F9221217E87004181818221217F7DB
:10066300700D74FFF61819F61819F61819F622E723
:10067300548066F61218A6700F12189D70F014F6C7
:1006830008F608F608F680D112189D700CF608F6E5
:1006930008768008E6447F80EC121654700C12161C
:1006A3007C60BFE65480F6E480BB12167C700519AB
:1006B300191980A5E869700C763F18768018F6182A
:1006C300F6E8F922E6CDC0E018ECC0E0E633CD331E
:1006D300CDD313F6E719FCE7191933CC33C3947F51
:1006E300400ECD9D502408E65480F6E418F6800FA2
:1006F300F4043D14501408E6447FF6187680E41899
:10070300F618F6D0E0FCD0E0FD22CCD313CCFD18D4
:10071300E4C6CBC0E018E4C6CAC0E00808ED08C6CA
:1007230033E613F618E433C675F003C3CA97CA0950
:10073300CB97CB199C40047D08802EBD0003020893
:100743000016B6FF050606081618C3CA33CACB330C
:10075300CB33CA27CA09CB37CB193CC37D08803EAC
:10076300187D0820E75CC633C6CA33CACB33CB3304
:10077300DDF1D5F0EB30E77BCA97CA09CB974ACBBB
:10078300199C406F4B7025E620E0218066187D0898
:10079300C3CA97CA09CB97CB199CD3C633C6CA33EE
:1007A300CACB33CB3350C9DDE7D5F0E1D3E4C6364A
:1007B300C608C636C608C636C608C636C6181818CA
:1007C3008031C3CA97CA09CB97CB199CB34097C64C
:1007D30033C6CA33CACB33CB33DD34D5F02EC6A2EE
:1007E300E0C640C8CA27CA09CB37194A70BECB3CFA
:1007F300B480B90808E63308E633601F181818D028
:10080300E0FAD0E0FBD0E0FCD0E0FD22187D08CA7E
:1008130027CA09CB37CB193CD3808013F618E4B62B
:100823007F11F618B6FF0EF618C60470D2080876C4
:100833008080CAF618F618F680C5001217E8604FD4
:100843001217F76012E7548066F6121679701112C8
:10085300189D703B090909F4F618F618F618F622E4
:1008630012165170151218A608080860EAE6447FAC
:10087300F618768018E4F618F6221218A6601612F7
:10088300189D7012E4F608F608F608E65480F60997
:10089300090918181822EAC0E0EBC0E0ECC0E0ED4B
:1008A300C0E0E687F0A4FBACF008E687F0A42CFCDC
:1008B300E435F0FA1809E687F0A42C4B60027401C2
:1008C300CA35F0FCE433FB09E687F0D2F7A42CCB5E
:1008D30035F0FC1908E687F0A42BCC35F0FBE433A4
:1008E300FD0819E687F0D2E7A42C4ACB35F0CD34C6
:1008F30000FC09E687F0D2E7A42DCC35F0FDE43304
:10090300FA0918E687F0D2F7A42CCD35F0CA3400E3
:10091300FC08E687F0D2E7D2F7A42ACC35F07A7E3A
:1009230020E70B0ACB33CBCD33CDCC33CC33CB3316
:1009330050147004ED30E00ED2F1E4CD3DCDCC3C4B
:10094300CC3B5005DA05C2F1EB547FC63308E633DE
:1009530092F0FBE73309E733C39A502D2B70190C40
:100963000D4C4D70151806E608C333700D20F10ABF
:10097300A2F013F6E418800B4024E4F630F002767C
:100983008018F618F618F68024D33B14501074FF21
:10099300A2F013F6187680E418F618F6800FA2F08A
:1009A30013F618E63303F618ECF618EDF6D0E0FD6F
:1009B300D0E0FCD0E0FBD0E0FA22C0E074F1120FEB
:1009C30034A2AFE433F509D2AF85A708AFA1EF5541
:1009D30008FE74105E6006121A3875A1EF74085E83
:1009E3006008121A3E75A1F78024EFA2E092F0E5A9
:1009F30008A2E082F05017906198E0F8900504E0B7
:100A0300C398A2D265D0335002E8F075A1FEE50980
:100A1300A2E092AF7F02020F93C0E074F2120F3490
:100A2300A2AFE433FED2AF9061A4E0F8759B00E57A
:100A33009158540860087591F7121A868023E5913E
:100A430058541060087591EF121A8C8014E591A226
:100A5300E092F0E8A2E082F05007E0C2E0F0121B5F
:100A6300D69061A3E0F8E5E9585404600E121BAC7C
:100A730075E9FB906193E0A2E640F2EEA2E092AF4B
:100A83007F01020F93C0E074F2120F34A2AFE4337C
:100A9300FED2AF9061A5E0F8E5BF58540460067537
:100AA300BFFB121BEE80D4C3E498F8E499F9120A51
:100AB300EB8026C3E49AFAE49BFBE920E7E9120AF8
:100AC300EBE498F8E499F922C3E498F8E499F9126D
:100AD3000AEBE498F8E499F9C3E49AFAE49BFB225D
:100AE300EB20E7CFE920E7E0B90010BB0008E88A74
:100AF300F084F8AAF022E4FBC8FA22EB70227B1000
:100B0300C833C8C933C9335007C39AC3DBF280065D
:100B13009A50012ADBEAC833F4C8C933F4C9FA226C
:100B230075F008E4C833C8C933C933C99AC99B509F
:100B330004C92AC93BD5F0ECFBC833F4C8E4C9FAAD
:100B430022C0E0C0D0E8C0E0E9C0E0C082C083A812
:100B5300C1E8C0E09004B1E0F8743028F582E434D1
:100B630004F583D0E0F09004B0E0F8A3E0687006E9
:100B7300E5959004B3F09004B1E004F0C394804091
:100B830002E4F0A374C6F0D083D082D0E0F9D0E0C1
:100B9300F8D0D0D0E032C0E0C0D0E8C0E0E9C0E097
:100BA300C082C0839004F4E0F8A3E0687008539A0D
:100BB300FBA374018022C2E99004F4E0F8740128D5
:100BC300F074B428F582E43404F583E0F5C19004AD
:100BD300F4E0C394404002E4F080AC120C2930F0FE
:100BE30039120C6E8034120C2920F01430E72B7468
:100BF300FFFCFBFA747F8022E4FCFBFA7480801A0A
:100C0300B48008BC00F2BB00EF800F50EBF9E4C3E3
:100C13009AFAE49BFBE49CFCE499C6CC18C6CB1877
:100C2300C6CA18C6F922E4C9C608CAC608CBC6D3C1
:100C3300330308CCC63392F0C3947F402E941840FC
:100C430019C9B90704CACBCC225025C309CA33CA70
:100C5300CB33CBCC33CC33D9F422F4600DC9CCC322
:100C630013CB13CBCA13CAD9F6CC22E4FCFBFA226A
:100C730014FCFBFA22C0E074F2120F34A2AFE43387
:100C8300FED2AF9006A8E05589600FE589FA790096
:100C9300121EAC9006A8E0F45289C2C5EEA2E092FF
:100CA300AF7F01020F93C0E074F2120F34A2AFE4DE
:100CB30033FED2AF9006A9E0558A600FE58AFA7930
:100CC30001121EAC9006A9E0F4528AC2EB80CDC09B
:100CD300E074F2120F34A2AFE433FED2AF9006AA4F
:100CE300E0558B600FE58BFA7902121EAC9006AAD1
:100CF300E0F4528BC2E880A4080808EAC0E0EBC025
:100D0300E086F0E7A4FA180986F0E7A42AFA18099E
:100D130086F0E7A42AFA180986F0E7A42AFA1986C6
:100D2300F0E7A4FBE5F02AFA190886F0E7A42BFB09
:100D3300E5F03AFA190886F0E7A42BFBE5F03AFA56
:100D430018180986F0E7A4C5F02BFBE43AFA190852
:100D5300E7C5F0C6A426F6E5F03BFBE43AFA1886AD
:100D6300F0E7A4F6E5F00826F6E43B08F6E43A08D3
:100D7300F6D0E0FBD0E0FA22080808E630E71112CB
:100D830016B5120D93080808C64480C61818182211
:100D9300181818E9799EC608CAC608CBC608CCC677
:100DA300C370207996CACBCC7019798ECBCC7013D3
:100DB3007986CC700EF9802ACA33CACB33CBCC33B5
:100DC300CC331930E7F2CCCBCA3350147004EA3079
:100DD300E00DE4CA3ACACB3BCBCC3CCC500209C3AE
:100DE300E913C6CC182313C6CB18C6CA18C6F922F2
:100DF300E4CFC0E0E4CEC0E0E4CDC0E0E4CCC0E0AA
:100E030075F020E626F608E633F608E633F608E63C
:100E130033F6181818EC33FCED33FDEE33FEEF33E5
:100E2300FFC3EC9709ED9709EE9709EF9719191985
:100E3300400FFFEC97FC09ED97FD09EE97FE19199A
:100E430006D5F0BFECF709EDF709EEF709EFF7194F
:100E53001919D0E0FCD0E0FDD0E0FED0E0FF222560
:100E630018C582C0E0E51934FFC583C0E0E518C3A7
:100E7300958224F810AF0885831985821880088528
:100E83008319858218D2AFCEF0A3E520F0A37808AA
:100E9300E608F0A3DEFAEFF0A3E58124FAF8E6080A
:100EA300F0A3E608F0A3E608F0A30808E608F0A319
:100EB300E608F0A315811581D0E0FED0E0F8158196
:100EC30015811581E8C0E0EEC0E0222518C582C077
:100ED300E0E51934FFC583C0E0E518C3958224F922
:100EE30010AF088583198582188008858319858248
:100EF30018D2AFCEF0A3E520F0A37808E608F0A35C
:100F0300DEFAEFF0A3E58124FBF8E608F0A3E60898
:100F1300F0A30808E608F0A3E608F0A315811581FD
:100F2300D0E0FED0E0F815811581E8C0E0EEC0E026
:100F330022C0D02518C582C0E0E51934FFC583C09F
:100F4300E0E518C3958224F310AF088583198582E1
:100F5300188008858319858218D2AFC8F0A3E9F0F9
:100F6300A3EAF0A3EBF0A37908E709F0A3D8FAEC1E
:100F7300F0A3EDF0A3EEF0A3EFF0A3D0E0F0A3D045
:100F8300E0F0A3D0E0F0A3E520F0A3E5F0F0A32286
:100F9300851983851882E0C0E0A3E0F9A3E0FAA3F2
:100FA300E0FBA37808E0F608A3DFFAE0FCA3E0FD8A
:100FB300A3E0FEA3E0FFA3E0C0E0A3E0C0E0A3E062
:100FC300F5D0A3E0F520A3E0A3F5F010AF088583E7
:100FD300198582188008858319858218D2AFD0823B
:100FE300D083D0E0F8D0E0321216B8181818120DDA
:100FF300F3121787191919221217871919190808D3
:1010030008E618181820E7E0120DF31216B818189E
:101013001822090909E719191920E7DC080808E665
:1010230018181820E703020DF31216B8181818122F
:101033000DF31216B8181818121787191919221256
:101043001888B90003021081E49003D97833791B1F
:101053008002F0A3D8FCD9FA7A0B7B1E9000867825
:10106300CD79018015E493A3AD82AE838A828B830D
:10107300F0A3AA82AB838D828E83D8E9D9E77582E8
:10108300757583BE74071214E075821C75833974F9
:10109300001214E01E75F0108E1A8F1B85821F85B7
:1010A300831E851882851983E0CEA3E0CF851F8236
:1010B300851E83EBC9EAC8EDCBECCAC3E833C8E9A4
:1010C30033C9EA33CAEB33CBC3EA9EF51DEB9FF575
:1010D3001CB35004AB1CAA1DEC33CCED33CDD5F0BF
:1010E300DAAE1AAF1B221217E8601C1217F760174B
:1010F3001218A6700712189D7001D322C0D01218BF
:101103009D7006D0D0B322C32233D0D0501430E028
:10111300F6C3E7960809E7960809E7960809E796EC
:10112300B32220E0D5E6970809E6970809E6970871
:1011330009E697B3221217E8601B1217F76016121D
:1011430018A6700712189D600CB322C0D012189D08
:101153007005D0D022C32233D0D0501330E0EBC37C
:10116300E7960809E7960809E7960809E796222013
:10117300E0E4E6970809E6970809E6970809E69781
:1011830022D083D082ECC0E0EDC0E0E493A3FCE482
:1011930093A3FDED4C600D12129CEC24FFFCED3487
:1011A300FFFD80EFE493A3FCE493A3FDED4C600DFE
:1011B3001213A3EC24FFFCED34FFFD80EFD0E0FD20
:1011C300D0E0FCE493A3C0E0E493C0E022D083D05A
:1011D30082E9C0E0E493A3C386F0C5F095F0F90873
:1011E300E493A386F0C5F095F0700BE493A3C39941
:1011F3004005E9048002A3E475F002A42582F58288
:10120300E5F03583F583D0E0F9E493A3C0E0E493FC
:10121300C0E022851983851882E0A3FEE0A3F520B0
:101223007808E0A3F608DFFAE0A3FFE0A3C0E0E05C
:10123300A3C0E0E0A3C0E0E0A3C0E0E0A3C0E010EF
:10124300AF088582188583198008858218858319DC
:10125300D2AFD083D0820214E6851983851882E049
:10126300A3FEE0A3F5207808E0A3F608DFFAE0A3E5
:10127300FFE0A3C0E0E0A3C0E0E0A3C0E0E0A3C0C0
:10128300E010AF0885821885831980088582188548
:101293008319D2AFD083D08222C0E0C3E4939608EF
:1012A3007401939618400FE49366700808740193D1
:1012B300661870007019A3A3C3E49396087401938E
:1012C3009618A3A3400DD0E0D0E0D0E00211C0A354
:1012D300A3A3A3A3A3D0E022C0E074F2120F34C2ED
:1012E300D9901E52E0C39400A2D265D0334005E0EA
:1012F300F912223C7F01020F93C0E074F2120F3403
:10130300C2DC901E54E0F9C39400A2D265D03340EE
:101313000312223C80DE7404800474028000CCC07B
:10132300E0EDC0E0E518C39CCCAD1950011D10AF32
:10133300068C188D1980068C188D19D2AF12146281
:10134300D0E0FDD0E0FC2274028000CCC0E0EDC010
:10135300E0E518C39CCCAD1950011D10AF068C18E5
:101363008D1980068C188D19D2AF12141ED0E0FD92
:10137300D0E0FC221217E860251217F7602012183C
:10138300A6700302189D080808E76670101819E78D
:1013930066700A1819E76670041819E76622F422C2
:1013A300C0E0C0F088F0E4936670080874019366A7
:1013B300187000A8F0A3A3700BD0F0D0E0D0E0D059
:1013C300E00211C0A3A3D0F0D0E022D083D082CC1E
:1013D300C0E0E493A360061214831470FAE493A3A9
:1013E30060061215E61470FAD0E0FCE493A3C0E0A3
:1013F300E493C0E022C008C3E096F50808A3E09692
:10140300420808A3E096420808A3E0964208A2D245
:1014130065D033E5087001D3D00822CAC0E0E49355
:10142300A3C582CCC582C583CDC583F0A3C582CCB9
:10143300C582C583CDC583DAE5D0E0CA22A2E7928F
:10144300D65002F40430F70663F0FF05F0B340030F
:1014530084800384F40430D60563F0FF05F022CAC8
:10146300C0E0E0A3C582CCC582C583CDC583F0A30C
:10147300C582CCC582C583CDC583DAE6D0E0CA2256
:10148300C0E0E493A3D39C5010E493A3C39C400A0D
:10149300D0E0D0E0D0E00213EBA3A3A3D0E022700E
:1014A30009080808226016181818C6C333C608C6E8
:1014B30033C608C633C608C633C6D5E0EA22C00819
:1014C300C3E096F50808A3E096420808A3E0964215
:1014D3000808A3E09645087001D3D00822C09FF501
:1014E3009FE473D09F22D083D082C09FE493C0E057
:1014F300740193C0E0740293F59F227404800A740C
:10150300038006740280027401C0E0F404121534EF
:10151300D0E01218332200C0D0251810AF08F518F8
:10152300500C05198008F51850020519D2AFD0D018
:10153300222518F58210AF08F518400C15198008FC
:10154300F51840021519D2AF85198322BB0102E7B2
:1015530022C082C08389828A83BB0003E08002E4C5
:1015630093D083D08222C0E0C0D0E8C0E0A8A8D244
:10157300AFC2C7E8A2E792AFD0E0F8D0D0D0E03254
:101583006017080808C6A2E713C618C613C618C60C
:1015930013C618C613C6D5E0E9226016080808C6A4
:1015A300C313C618C613C618C613C618C613C6D5A2
:1015B300E0EA22C3E0C696F608A3E0C696F608A3BF
:1015C300E0C696F608A3E0C696F6222518F8E43599
:1015D30019F9222518FAE43519FB222518FCE435FC
:1015E30019FD22C0E0E493A36C7009D0E0D0E0D0F1
:1015F300E00213EBA3A3D0E022251810AF08F518DF
:10160300400C15198008F51840021519D2AF22E7CE
:101613006670100809E766700A0809E7667004082F
:1016230009E76622C3E09608A3E09608A3E09608BC
:10163300A3E096A2D265D03322E066701008A3E03F
:1016430066700A08A3E066700408A3E0662219190D
:1016530019E70947097009E727097005E733F422F9
:101663000922C3E096F008A3E096F008A3E096F001
:1016730008A3E096F022181818E60846087009E651
:1016830026087005E633F4220822C3E4939608740F
:101693000193960874029396087403939622C3E603
:1016A30097F60809E697F60809E697F60809E69714
:1016B300F622181818E4C396F608E496F608E4969A
:1016C300F608E496F622E493F608740193F6087498
:1016D3000293F608740393F622E667F60809E667B1
:1016E300F60809E667F60809E667F622E056F60803
:1016F300A3E056F608A3E056F608A3E056F622E662
:1017030057F60809E657F60809E657F60809E657B3
:10171300F622E627F60809E637F60809E637F6085B
:1017230009E637F622E026F608A3E036F608A3E03A
:1017330036F608A3E036F622E026F008A3E036F0FA
:1017430008A3E036F008A3E036F022E647F60809DE
:10175300E647F60809E647F60809E647F622700465
:1017630022600D18C6C333C608C633C6D5E0F418C5
:1017730022E056F008A3E056F008A3E056F008A3D1
:10178300E056F022E4C397F709E497F709E497F7E3
:1017930009E497F722600D08C6A2E713C618C6131B
:1017A300C6D5E0F322C6F4C608C6F4C608C6F4C616
:1017B30008C6F4C622C3E09608A3E09608A3E09601
:1017C30008A3E09622C3E7960809E7960809E79677
:1017D3000809E7962275D00075813F7518D97519E8
:1017E3000300021042E6084608C3134608336002AA
:1017F300E633F422E7094709C3134709336002E7D5
:1018030033F422600C08C6C313C618C613C6D5E04A
:10181300F422E6F008A3E6F008A3E6F008A3E6F056
:1018230022E0F608A3E0F608A3E0F608A3E0F62218
:10183300CAC0E0E6F0A308DAFAD0E0FA22E0FCA39B
:10184300E0FDA3E0FEA3E0FF22EAF0A3EBF0A3ECAC
:10185300F0A3EDF022E0FAA3E0FBA3E0FCA3E0FD9C
:1018630022E8F0A3E9F0A3EAF0A3EBF022ECF0A363
:10187300EDF0A3EEF0A3EFF022E0F8A3E0F9A3E08C
:10188300FAA3E0FB22E5C754F84401F5C779012226
:101893002518F582E43519F58322E72719471947F7
:1018A300194722E62618461846184622C2AF75D6AF
:1018B3009F020000221214E90CBD071214E964BD53
:1018C300071214E9EBBD071214E927BE071214E946
:1018D300EBFF061214E9FBFF061214E97A990712CB
:1018E30014E9DD99071214E92C9A071214E9599A9D
:1018F300071214E9AF9A071214E9C3FF031214E99C
:101903008BB5071214E9D5B5071214E96BB60712A4
:1019130014E9F1B6071214E922B7071214E93AB72A
:10192300071214E9AEB7071214E9C4B7071214E992
:10193300D7B7071214E9E1B7071214E93FB3051249
:1019430014E98BB8051214E9BDB8051214E9E9B816
:10195300051214E991B9051214E987BC051214E9BB
:10196300BAD3051214E926D4051214E9D6D4051204
:1019730014E9A1D5051214E9F7D6051214E9E5D740
:10198300051214E9ECD8051214E9EADA051214E990
:101993001DDB051214E987DB051214E9AEDB051222
:1019A30014E92BDD051214E9AFDD051214E9C3DDDB
:1019B300051214E939DE051214E98689061214E9C1
:1019C3002C8C061214E9948D061214E91B9006124E
:1019D30014E926F6061214E952F6061214E9C3F8BE
:1019E300061214E903F9061214E943F9061214E97D
:1019F30057F9061214E970F9061214E961FA06128E
:101A030014E906FB061214E91AFB061214E99DCB2E
:101A1300071214E9C1CB071214E9DACB071214E950
:101A23000CCC071214E93CCC071214E969CC071259
:101A330014E9CBCC071214E9DACC071214E9E4CC8D
:101A4300071214E9F1CC071214E960B0071214E984
:101A530080B0071214E9BFB0071214E9DAB0071215
:101A630014E9F9B0071214E95FB1071214E968B178
:101A7300071214E9C5B1071214E9E9B1071214E911
:101A8300AAB2071214E9B7B2071214E9C8B20712CF
:101A930014E9AEDA071214E9C6DA071214E9F2DA26
:101AA300071214E970FB061214E9CAFC061214E9C2
:101AB300D8FC061214E9EBFC061214E900FD061229
:101AC30014E915FD061214E928FD061214E99CFD1C
:101AD300061214E901FE061214E9A3FE061214E924
:101AE30067FF061214E977FF061214E986FF061250
:101AF30014E960FF011214E984FF011214E9ACFF39
:101B0300011214E9D4FF011214E952BA071214E9BD
:101B130079BA071214E997BA071214E90ABB071234
:101B230014E98DAD071214E9A6AD071214E9B2AD9D
:101B3300071214E9C6AD071214E9E4AD071214E95C
:101B4300EEAD071214E9F8AD071214E90BAE071254
:101B530014E991AE071214E906AF071214E935AF81
:101B6300071214E983AF071214E9D2AF071214E97D
:101B7300EDAF071214E9F7AF071214E908B0071223
:101B830014E94BB0071214E963DA071214E9F89267
:101B9300061214E92293061214E93F93061214E97C
:101BA3005293061214E96893061214E9C6930612B7
:101BB30014E9FE93061214E9F297061214E9379911
:101BC300061214E96A99061214E9CD99061214E96A
:101BD3002D9B061214E9559B061214E96A9B061203
:101BE30014E97A9B061214E9BE9B061214E9199CA8
:101BF300061214E9299C061214E932D2071214E9D9
:101C03004CD2071214E974D2071214E98DD20712C9
:101C130014E9B1D2071214E9CFD2071214E9E6D2BC
:101C2300071214E914D3071214E92FD3071214E986
:101C330039DB071214E908A1071214E918A10712E6
:101C430014E91DA2071214E94FA2071214E975A2A1
:101C5300071214E998A2071214E9AFA2071214E9B4
:101C6300E9A2071214E94EA3071214E990A307127D
:101C730014E9CFA3071214E900A4071214E937A447
:101C8300071214E940C3061214E916C4061214E934
:101C930041C4061214E95EC4061214E959C50612BA
:101CA30014E99BC5061214E909C6061214E95BC6BA
:101CB300061214E9CAC6061214E901C8061214E989
:101CC300FEC8061214E9AB7B001214E9007C001273
:101CD30014E9807C001214E9937C001214E9BA7CA5
:101CE300001214E95D7D001214E93E7E001214E92E
:101CF300BAF6041214E9E5F6041214E9B0F7041273
:101D030014E9F7F7041214E988F8041214E901FC42
:101D1300041214E9B9FD041214E936C8041214E9D3
:101D230076C8041214E975CA041214E99BCA041292
:101D330014E99DCD041214E9D9CE041214E944D256
:101D4300041214E9AED2041214E948D3041214E9BC
:101D53009BD3041214E903D4041214E953D40412D8
:101D630014E985D4041214E988D4041214E998D42C
:101D7300041214E9AAD4041214E9F9D4041214E9DC
:101D8300B6D6041214E923D7041214E969D704124E
:101D930014E905D8041214E98BD8041214E987DA7C
:101DA300041214E926DC041214E96DDD041214E9AB
:101DB30051DE041214E902E0041214E99DCF071264
:101DC30014E9B7CF071214E9F9CF071214E92CD09D
:101DD300071214E946D0071214E95FD0071214E979
:101DE30092D0071214E9B4D0071214E9C0D5061231
:101DF30014E9F1D5061214E945D6061214E915D7EC
:101E0300061214E94BD7061214E978D7061214E91F
:101E1300CAD7061214E9E8D7061214E90CD8061239
:101E230014E932D8061214E9B4D8061214E93ED9DB
:101E3300061214E96FD9061214E9B5D9061214E98A
:101E4300D3D9061214E9F7D9061214E91EDA0612D9
:101E530014E954DA061214E9B3DA061214E9D5DAEE
:101E6300061214E934DB061214E943DB061214E903
:101E73007CDB061214E9599C061214E9939C0612A2
:101E830014E9D29D061214E9029F061214E97BA5F8
:101E9300061214E98BDB061214E992DC061214E92C
:101EA300D3DC061214E947DD061214E982D40712C3
:101EB30014E9F3D4071214E958D5071214E9D3E847
:101EC300051214E9F2E9051214E900EB051214E90D
:101ED30047EC051214E99FEC051214E9E4EC051232
:101EE30014E9F2EC051214E922ED051214E9B8ED38
:101EF300051214E914EF051214E920F0051214E990
:101F0300B8F1051214E93BF3051214E98FA4071283
:101F130014E9EAA4071214E923A5071214E90BA78D
:101F2300071214E9E3EB061214E928EC061214E98C
:101F33005EEC061214E985ED061214E92AEF061287
:101F430014E997EF061214E9E7F0061214E946F3D1
:101F5300051214E957F4051214E9CDF4051214E936
:101F6300C6F5051214E912F6051214E98DF90512E6
:101F730014E96DFA051214E9C2FA051214E917FB04
:101F8300051214E9F7FB051214E9D5C8071214E981
:101F930012C9071214E941C9071214E955C90712F6
:101FA30014E96E84071214E98085071214E9638625
:101FB300071214E98486071214E94D87071214E9FE
:101FC300EF87071214E92088071214E9A088071283
:101FD30014E944F7021214E9A6F7021214E93AF8D5
:101FE300021214E9C9F9021214E90AFD021214E9F2
:101FF30020FD021214E9E2FD021214E939CA0712A4
:1020030014E959CA071214E96DCB071214E970CB0E
:10201300071214E9ECD0071214E922D1071214E9CC
:102023003CD1071214E97ED1071214E98ED10712AD
:1020330014E928D2071214E945BC061214E94FBC6F
:10204300061214E989BC061214E9F2BC061214E95B
:102053000FBD061214E9B1BD061214E9BABD06128A
:1020630014E9FFBD061214E928BE061214E935BEB1
:10207300061214E9A6BE061214E931BF061214E9CA
:102083007FBF061214E9BDBF061214E922C006126F
:1020930014E945C0061214E9BCC0061214E913C1C1
:1020A300061214E94EC1061214E983C1061214E99B
:1020B30095C1061214E9A7C1061214E9C6C1061296
:1020C30014E9CFC1061214E98AC2061214E9D6C272
:1020D300061214E914C3061214E9FBCC071214E91F
:1020E3003BCE071214E940DC071214E9B5A7071227
:1020F30014E9F9A7071214E941A8071214E927AA5A
:10210300071214E9B6AA071214E97CFF041214E9B2
:102113000080051214E92481051214E95E81051279
:1021230014E90883051214E93283051214E9A7851B
:10213300051214E9E785051214E97D87051214E9F0
:102143001A88051214E96C88051214E90F8905121F
:1021530014E94789051214E98989051214E9F88AF3
:10216300051214E9468C051214E9778E051214E959
:10217300A58E051214E9CC8E051214E9D58E05122D
:1021830014E9258F051214E9B78F051214E9E692B5
:10219300051214E96993051214E9E3DB071214E944
:1021A300F9DB071214E97A91071214E990910712E7
:1021B30014E93492071214E97392071214E9909206
:1021C300071214E9C192071214E90E93071214E9D6
:1021D3004193071214E97C93071214E971950712CE
:1021E30014E9FCC9061214E9A2CB061214E9E3CCE4
:1021F300061214E9FBCC061214E9228D071214E926
:10220300598E071214E9B88F071214E9A2A5061212
:1022130014E9C9A6061214E9C8A7061214E91EA9EF
:10222300061214E943AA061214E91DAB061214E9B7
:1022330055C0071214E903C1071214E9B693051236
:1022430014E97B94051214E98694051214E9379571
:10225300051214E99695051214E98D97051214E9F0
:10226300FD97051214E9029A051214E93B9A051227
:1022730014E9E49C051214E90C9D051214E98E9DE2
:10228300051214E9099E051214E9939F051214E936
:10229300E89F051214E966A0051214E943A5051287
:1022A30014E93FE1061214E966E1061214E9C1E3F9
:1022B300061214E9E8E3061214E93DE4061214E9F0
:1022C3006FE5061214E9EBE5061214E9F6B20712FC
:1022D30014E90EB3071214E959B4071214E960B4F0
:1022E300071214E989B4071214E996D7071214E9FF
:1022F300F5D7071214E933D8071214E974D8071273
:1023030014E9B3E6061214E9D9E6061214E919E84A
:10231300061214E90EE9061214E935E9061214E966
:10232300CEE9061214E922EA061214E93DEB06127D
:1023330014E9DFCF061214E981D0061214E9A1D102
:10234300061214E9F3D2061214E9A7D4061214E90B
:102353003ABE051214E98EBE051214E9B8BF051280
:1023630014E9E4C0051214E9D2C1051214E96EC4DC
:10237300051214E925C6051214E970C6051214E9FD
:102383007EC8051214E96F9D071214E9C29D071256
:1023930014E9459E071214E9D1A0071214E94CCEA3
:1023A300071214E9C6CE071214E9E1CE071214E9A5
:1023B30030C2071214E945C3071214E9ADC307126B
:1023C30014E904C4071214E94FC4071214E99FC4A3
:1023D300071214E9BAC4071214E947C7071214E92C
:1023E300A2C7071214E99EC8071214E9F4B707122B
:1023F30014E95DB8071214E9D3B8071214E9FBB85E
:10240300071214E92BD9071214E975D9071214E935
:1024130024AE061214E981AE061214E95FAF061268
:1024230014E993B0061214E9C3B0061214E90BB20F
:10243300061214E968B2061214E926B3061214E967
:102443009EB3061214E9BFDB071214E9D2DB0712AD
:1024530014E962D3071214E971D3071214E9D1D333
:10246300071214E903DC071214E909DC071214E963
:102473000FDC071214E90080041214E90C80041223
:1024830014E96E80041214E97880041214E90B81B4
:10249300041214E94781041214E90382041214E9B3
:1024A3001682041214E96682041214E9F5820412F6
:1024B30014E92B83041214E9AD83041214E95C8537
:1024C300041214E93087041214E91688041214E97B
:1024D3006889041214E9BE8B041214E9278D0412CF
:1024E30014E9C48D041214E96C92041214E95A938A
:1024F300041214E9F893041214E92494041214E95D
:10250300C094041214E9D594041214E9F994041242
:1025130014E95F95041214E97C95041214E9A69555
:10252300041214E92397041214E94497041214E9DA
:10253300CA97041214E97098041214E9B7980412A4
:1025430014E92A99041214E9B699041214E91A9A9F
:10255300041214E97A9A041214E9109B041214E980
:102563008B9B041214E9BE9B041214E9209C0412F1
:1025730014E9829D041214E9F29D041214E9A19E48
:10258300041214E9F79F041214E98FA0041214E94A
:10259300FBA0041214E93EA3041214E9CAA4041212
:1025A30014E9F5A4041214E9DBA6041214E971A8D2
:1025B300041214E97AA9041214E965A5051214E9B1
:1025C3001CA6051214E923A7051214E9A1A70512F5
:1025D30014E9E3A8051214E904A9051214E9BCA936
:1025E300051214E967AA051214E947AE051214E9A6
:1025F30063B0051214E9CAB1051214E9F5DA07123A
:1026030014E9BDD6031214E918D7031214E9A2D7AB
:10261300031214E913D9031214E9EBD9031214E9D1
:10262300D4DA031214E9EBDA031214E93DDB0312E3
:1026330014E9A1DB031214E9E2DB031214E9F5DB6D
:10264300031214E94BDC031214E9A4DC031214E9AA
:10265300BCDC031214E949DF031214E9DEDF0312C1
:1026630014E908E0031214E951E0031214E941E20A
:10267300031214E9ABE2031214E97FE3031214E932
:10268300C2E3031214E9DCE3031214E923E40312A3
:1026930014E945E4031214E9EFE4031214E9E7E54E
:1026A300031214E941E6031214E992E6031214E952
:1026B3002AE8031214E9A2EA031214E920EB031235
:1026C30014E94DEB031214E9C0EB031214E9E3EB35
:1026D300031214E95DEC031214E928ED031214E963
:1026E30065ED031214E9C7ED031214E988EE031232
:1026F30014E98BEE031214E995EE031214E99FEE2D
:10270300031214E9B2EE031214E924EF031214E9DD
:102713004DEF031214E960EF031214E98CEF031277
:1027230014E9B3EF031214E9D7EF031214E912F01B
:10273300031214E984F0031214E9ACF0031214E950
:10274300EDF0031214E922F1031214E942F103122A
:1027530014E97FF1031214E9B6F1031214E9B6F296
:10276300031214E9E9F3031214E9FFF3031214E962
:1027730003DA071214E91BDA071214E9FA7F0012CD
:1027830014E945B5061214E994B5061214E934B7F1
:10279300061214E9EFB8061214E931B9061214E966
:1027A3001ABA061214E924BB061214E946BB061230
:1027B30014E990BB061214E911BC061214E92ED8D1
:1027C300021214E951D8021214E944D9021214E98D
:1027D3008DD9021214E9E5D9021214E98CFE05120F
:1027E30014E98FDA021214E905DB021214E991DB12
:1027F300021214E906DC021214E949DC021214E99C
:1028030029E0021214E978E2021214E9ABE202129F
:1028130014E922E3021214E953E6021214E9C8E6AA
:10282300021214E953E8021214E960E9021214E9EE
:1028330076EA021214E9ECEA021214E9B3EB02128B
:1028430014E91CEC021214E91FEC021214E9FCEC6B
:10285300021214E938EE021214E9F3EF021214E93A
:102863009FF1021214E991F2021214E921F3021208
:1028730014E9B0BC071214E997F5021214E9EEF556
:10288300021214E98BF6021214E943E1041214E96B
:10289300E3E1041214E94DE2041214E9F4E2041230
:1028A30014E953E3041214E9FFE3041214E9A8E65C
:1028B300041214E9CEE7041214E952E8041214E9ED
:1028C3002FEA041214E9D4EA041214E977EB041290
:1028D30014E9D6EB041214E98FEC041214E90EEE9A
:1028E300041214E9CBEF041214E94CF1041214E9B5
:1028F300A6F2041214E9B6F3041214E95CF4041208
:1029030014E97BF5041214E9B5AD041214E92DAEF4
:10291300041214E975AE041214E9B9AE041214E9F1
:1029230002AF041214E94CAF041214E981AF04128C
:1029330014E9FFAF041214E959B0041214E9B2B157
:10294300041214E931B2041214E948B3041214E96D
:102953006AB3041214E976B4041214E987B40412B6
:1029630014E99FB4041214E9BFB5041214E9DCB5E9
:10297300041214E9AFB6041214E9D3B6041214E92D
:10298300EAB6041214E90BB7041214E92DB70412C2
:1029930014E91FB8041214E977B8041214E9EDB965
:1029A300041214E94BBA041214E96ABA041214E9C2
:1029B3009CBB041214E919BC041214E986BC04126A
:1029C30014E9C6BC041214E928BD041214E9D8BDE5
:1029D300041214E9AABF041214E995C0041214E9FD
:1029E3008FC1041214E995C2041214E9B1C304128D
:1029F30014E9BFC3041214E998C4041214E938C5D6
:102A0300041214E97CC5041214E991C5041214E9F3
:102A1300A2C6041214E945C7041214E99DC704129F
:102A230014E9BFAA071214E9F8AB071214E9B5AC0D
:102A3300071214E919AD071214E97E95071214E978
:102A43009C95071214E9E095071214E906960712FC
:102A530014E92C96071214E94496071214E95C96BC
:102A6300071214E97496071214E9D796071214E9AA
:102A73001997071214E93B98071214E944980712AF
:102A830014E94D98071214E95698071214E960984F
:102A9300071214E98198071214E9C888071214E988
:102AA300A88C071214E9B68C071214E9BB8C071221
:102AB30014E9E2BE071214E9A2D9071214E9BFFF11
:102AC300061214E9BBC5071214E922DC071214E944
:102AD3000080021214E95780021214E9C380021223
:102AE30014E94F81021214E90582021214E94D829E
:102AF300021214E96682021214E98982021214E9AD
:102B0300AB82021214E9E982021214E93883021239
:102B130014E96383021214E9C183021214E968847D
:102B2300021214E91085021214E98C85021214E9C9
:102B33005986021214E9A086021214E9EC860212E5
:102B430014E97487021214E9AD87021214E90388A9
:102B5300021214E91F88021214E94E88021214E9C2
:102B63005A8A021214E9888B021214E9B48B0212F6
:102B730014E9E88B021214E9098C021214E9188C87
:102B8300021214E9238C021214E9D28C021214E902
:102B9300428D021214E9CD8D021214E9D58D021271
:102BA30014E9428E021214E97E8E021214E9448F54
:102BB300021214E91790021214E96C90021214E93C
:102BC3000B91021214E96591021214E9AA910212FF
:102BD30014E94394021214E98695021214E97098D9
:102BE300021214E95499021214E9389A021214E9F0
:102BF300499A021214E9BB9A021214E9529B021277
:102C030014E9B79B021214E9A79C021214E9CC9CA5
:102C1300021214E9EA9C021214E9069D021214E955
:102C2300799D021214E9889D021214E9109E021282
:102C330014E90D9F021214E91A9F021214E9239F4B
:102C4300021214E905A1021214E927A2021214E9DF
:102C530037A2021214E965A3021214E9E4A30212D3
:102C630014E9FFA4021214E93BA5021214E915A703
:102C7300021214E9D2AA021214E9E6AA021214E912
:102C8300F0AA021214E9FAAA021214E904AB02121E
:102C930014E91DAB021214E927AB021214E994AB39
:102CA300021214E99FAB021214E9C7AB021214E932
:102CB300D2AB021214E937AC021214E942AC02128D
:102CC30014E966AC021214E98AAC021214E9FCACF2
:102CD300021214E945AD021214E961AD021214E9BE
:102CE300D2AD021214E91EAE021214E967AE02124B
:102CF30014E9A5AE021214E926AF021214E9CDAF0E
:102D0300021214E99CB1021214E901B2021214E98D
:102D13002FB3021214E955B3021214E99DB402123F
:102D230014E9D7B7021214E9D5B9021214E9A0BB0A
:102D3300021214E939BC021214E93ABE021214E970
:102D4300EFBE021214E928BF021214E98EBF021269
:102D530014E998BF021214E9C1C1021214E900C3B5
:102D6300021214E957C3021214E902C4021214E94D
:102D7300B2C5021214E9FFC6021214E91FC70212F8
:102D830014E974C7021214E975C8021214E99DC844
:102D9300021214E9FCC8021214E9F4C9021214E97C
:102DA3006BCA021214E97ECB021214E9ECCB0212B5
:102DB30014E9EBCC021214E945CF021214E96ECFE9
:102DC300021214E9D4D0021214E956D2021214E901
:102DD300ADD2021214E95BD3021214E900D4021239
:102DE30014E959D4021214E917D5021214E9A9D52A
:102DF300021214E908D6021214E94AD6021214E99F
:102E03007BD6021214E9D2D7021214E9008003120E
:102E130014E93280031214E96B80031214E9298246
:102E2300031214E9FF82031214E95E83031214E907
:102E33007484031214E9C084031214E94E87031245
:102E430014E9288A031214E96F8B031214E9078C1F
:102E5300031214E9138C031214E95C8C031214E9B2
:102E63009E8D031214E9948E031214E9BE8E03128D
:102E730014E9148F031214E96D8F031214E9E08F20
:102E8300031214E91692031214E99893031214E936
:102E93008394031214E9CD95031214E905980312E0
:102EA30014E9029B031214E9119B031214E9A59B75
:102EB300031214E9509C031214E9939C031214E9BE
:102EC300DC9C031214E92C9D031214E9909D031258
:102ED30014E9029E031214E91E9E031214E94D9E87
:102EE300031214E98C9E031214E9879F031214E959
:102EF30036A0031214E9B3A2031214E9E5A30312E3
:102F030014E9BDA4031214E93FA5031214E974A93B
:102F1300031214E9A3A9031214E9FEA9031214E985
:102F230031AA031214E9A9AA031214E9DCAA0312B1
:102F330014E93DAB031214E98DAB031214E95AAC47
:102F4300031214E913AD031214E9D7AD031214E904
:102F530051B0031214E9B3B1031214E904B3031219
:102F630014E928B4031214E92BB4031214E95AB474
:102F7300031214E952B6031214E911B7031214E948
:102F830040B7031214E95EB8031214E926B9031219
:102F930014E9E4BA031214E916BB031214E958BB8B
:102FA300031214E957BC031214E9CABC031214E94F
:102FB300F3BE031214E952BF031214E9A6BF0312AE
:102FC30014E9D5C1031214E9B8C2031214E974C396
:102FD300031214E988C3031214E99CC3031214E90E
:102FE300C9C3031214E9F9C3031214E9B4C50312E4
:102FF30014E9C6C6031214E91BC7031214E964C714
:10300300031214E98BC7031214E953C8031214E91A
:10301300F9C8031214E97FCA031214E9C6CA0312DA
:1030230014E938CB031214E98DCC031214E936CD1D
:10303300031214E96ACD031214E982CD031214E9D1
:1030430025CE031214E9A1D0031214E949D20312C5
:1030530014E967D2031214E985D2031214E951D398
:10306300031214E99FD6031214E94685011214E9E9
:103073007E85011214E97E8A011214E9C48A0112C1
:1030830014E9FA8B011214E95F8C011214E9D48D4F
:10309300011214E9DE90011214E90792011214E9F6
:1030A3001A9C011214E9AA9C011214E9949F0112BB
:1030B30014E9A1A0011214E904A1011214E94CA21C
:1030C300011214E9BAA4011214E94CA6011214E97D
:1030D300D9A6011214E9F8A7011214E985A801126F
:1030E30014E98FA8011214E9B7A8011214E957A92A
:1030F300011214E942AA011214E90FAB011214E9F7
:103103002CAB011214E955AB011214E982AB011285
:1031130014E9C9AD011214E998AE011214E9D7AE4E
:10312300011214E959AF011214E9FAAF011214E9BB
:103133002CB0011214E973B0011214E9A6B0011204
:1031430014E9EAB0011214E939B1011214E93EB1EC
:10315300011214E99AB1011214E9DEB1011214E962
:10316300B8B2011214E91DB3011214E983B30112B9
:1031730014E9FEB3011214E966B7011214E969B840
:10318300011214E9E7B9011214E9FDBC011214E9B3
:103193009FBD011214E9E8BF011214E9A3C0011293
:1031A30014E9E2C0011214E9BAC2011214E9D7C248
:1031B300011214E9E0C2011214E9E9C2011214E98F
:1031C300F4C2011214E913C3011214E9B7C40112C2
:1031D30014E914C5011214E91EC5011214E928C526
:1031E300011214E987C5011214E9D1C5011214E9CA
:1031F300D2C6011214E929C7011214E93AC801120F
:1032030014E983C8011214E93DC9011214E954CA2F
:10321300011214E929CB011214E970CC011214E94B
:1032230074CD011214E96DCE011214E985CE011299
:1032330014E9BCCE011214E9C6CE011214E9D0CEB2
:10324300011214E9DBCE011214E9F9CE011214E9DB
:1032530041CF011214E99FCF011214E9C6CF011225
:1032630014E9D8CF011214E98DD0011214E9C6D0A4
:10327300011214E9E8D1011214E93BD2011214E955
:1032830021D3011214E948D3011214E9B8D301126E
:1032930014E934D4011214E990D5011214E9B7D614
:1032A300011214E979D7011214E947D8011214E97C
:1032B30005D9011214E9EDD9011214E997DA0112C3
:1032C30014E9FFDA011214E9B4DB011214E910DC8A
:1032D300011214E968DC011214E92EDD011214E96C
:1032E30051DD011214E90CDE011214E92EDE011284
:1032F30014E98FDE011214E9BFE0011214E9B8E109
:10330300011214E964E2011214E985E4011214E9DB
:10331300CEE4011214E919E5011214E975E501126D
:1033230014E9D3E5011214E9F7E5011214E91BE6E8
:10333300011214E950E6011214E978E6011214E9C6
:10334300BDE6011214E911E7011214E96AE701125B
:1033530014E964E8011214E902EA011214E947EAE4
:10336300011214E970EA011214E9F9EA011214E9ED
:103373006CEB011214E97AEB011214E99EEB0112D2
:1033830014E9F4EB011214E90FEC011214E9CAEC8D
:10339300011214E9F6EC011214E939ED011214E9F2
:1033A3009CED011214E9AAEF011214E9D6EF011200
:1033B30014E991F0011214E975F1011214E909F20B
:1033C300011214E953DE051214E98BDE051214E928
:1033D300ACDE051214E9EEDE051214E952DF051224
:1033E30014E95CDF051214E96CDF051214E9A3DFAD
:1033F300051214E94CE3051214E914E5051214E966
:10340300F8E6051214E99AE7051214E924E805120F
:1034130014E9F241001214E99B42001214E97A43C1
:10342300001214E98644001214E9A644001214E9B8
:10343300C845001214E97847001214E9E547001261
:1034430014E9B648001214E9BC49001214E9344ADD
:10345300001214E96F4A001214E9C84A001214E971
:10346300034B001214E94C4B001214E9E04B001219
:1034730014E9764C001214E94B4D001214E91E4E68
:10348300001214E9AC4E001214E9D24E001214E9F2
:10349300FF4E001214E9304F001214E9FD4F0012E1
:1034A30014E90D50001214E96050001214E96D5034
:1034B300001214E97A50001214E98350001214E93F
:1034C300E750001214E94551001214E9905100121B
:1034D30014E9AB51001214E9D251001214E9EF516F
:1034E300001214E9FB51001214E98C53001214E981
:1034F300A553001214E92154001214E934540012A4
:1035030014E94454001214E9E854001214E954561F
:10351300001214E96757001214E90758001214E95E
:103523001158001214E99058001214E9A15800121E
:1035330014E9E058001214E90E59001214E9DB599A
:10354300001214E9325A001214E96B5A001214E9FA
:10355300C15A001214E9DF5A001214E92D5B00125C
:1035630014E9F85B001214E9465C001214E9935C59
:10357300001214E9165D001214E9405D001214E90B
:10358300765D001214E9855D001214E9E45D001212
:1035930014E95C5E001214E99D5E001214E9ED5E0D
:1035A300001214E9185F001214E9325F001214E9E3
:1035B3004C5F001214E92160001214E92B60001221
:1035C30014E96660001214E97660001214E9C7601A
:1035D300001214E9DB60001214E9FD61001214E922
:1035E3001262001214E9A562001214E919630012B1
:1035F30014E9BE63001214E9C963001214E92C65CF
:10360300001214E94865001214E99465001214E9E4
:103613000266001214E93466001214E94E660012C1
:1036230014E9AE66001214E94D67001214E99867B5
:10363300001214E9EB69001214E9836A001214E919
:10364300FA6A001214E9576D001214E96F6D001243
:1036530014E9726D001214E97E6D001214E9926D83
:10366300001214E99A6D001214E9D16D001214E9E5
:10367300C56E001214E94F6F001214E9D16F0012E6
:1036830014E95170001214E92871001214E94A7107
:10369300001214E9E371001214E94072001214E9F4
:1036A3004372001214E9B272001214E9FE7300129D
:1036B30014E91175001214E99C75001214E9AF7630
:1036C300001214E97677001214E9A777001214E9BF
:1036D300CD77001214E9D677001214E905780012A9
:1036E30014E9B578001214E96579001214E9D87960
:1036F300001214E97B7A001214E9EE7A001214E93D
:103703002D7B001214E9767B001214E981FD05126A
:1037130014E9F7FC051214E9ADFE031214E922FDC6
:10372300031214E911FC031214E959FB031214E9FF
:10373300C6F9031214E9E4F6031214E910F60312AE
:1037430014E910F5031214E931F4031214E998DBB8
:10375300071214E975BC071214E97DD7071214E99F
:103763007DDB071214E9D57F001214E917D707127E
:1037730014E994D6071214E95182071214E97781E8
:10378300071214E9FD80071214E90080071214E9F7
:1037930080FE011214E9A6FD011214E9DCFC0112FA
:1037A30014E94BFB011214E914FB011214E9E6FAC4
:1037B300011214E99AFA011214E903FA011214E945
:1037C30073F9011214E94DF9011214E902F9011216
:1037D30014E9CCF8011214E94FF8011214E9EAF7DD
:1037E300011214E999F7011214E9C1F6011214E95F
:1037F30031F6011214E9E5F5011214E960F501123D
:1038030014E91BF5011214E9FFF4011214E9A7F3FB
:10381300011214E921D9071214E979F3011214E909
:10382300BBD8071214E9A6D8071214E996D80712D1
:1038330014E9E7FF051214E9FD7F001214E97CD6B1
:10384300071214E971D6071214E962D6071214E9B4
:1038530046F3011214E9CAF2011214E964F40612E0
:1038630014E9C9F2061214E99DD5071214E9D7F138
:10387300061214E905F1061214E96FD3051214E9CF
:1038830016D3051214E98CD5071214E9E1D20512F7
:1038930014E975F4021214E9ACD2051214E978D2D2
:1038A300051214E90BD2051214E9F3D1051214E938
:1038B300CED1051214E99FCE051214E972CC05127C
:1038C30014E972CA051214E9F8C9051214E9A9C961
:1038D300051214E963C9051214E905C9051214E9AF
:1038E300B287061214E90587061214E91686061232
:1038F30014E97A84061214E9A8FE051214E93D823C
:10390300061214E9A780061214E90F80061214E9BF
:103913000080061214E943DA0200000080FBE4731E
:103923008F000100D71B87000100A51E350004008E
:10393300691E250002006D1E260002006F1E27006F
:103943000200711E280001007B1E290001007C1E5D
:10395300840004007D1E86000100811E2A000100F0
:10396300821E2B000100831E2C000100871E2D00E8
:103973000800BF1B2E000100881E2F000100891EB6
:10398300300001008A1E310001008B1E320001004D
:10399300C71B33000100C81B340001008C1E360016
:1039A3000100C91B380001008D1E39000100861E6D
:1039B30083000200A31E63000100D41B6400010006
:1039C300841E65000100851E6D000100D51B71007A
:1039D3000800B71B66000100A21E43000100931EEE
:1039E30044000200941E45000100961E460002009A
:1039F300971E47000800CC1B48000100991E4B008E
:103A030001009A1E04000100A61EA1000100A91EC8
:103A130037000100A81E88000100A71E3C0001001A
:103A2300CA1B3D0001008E1E490002009B1E670059
:103A33000100D61B4D0002009D1E4E0001009F1E7B
:103A43004F000200A01E3E000100921E5100010023
:103A53008F1E52000100901E53000100911E54005E
:103A63000100CB1B0000000000000000000001006B
:103A7300E0380200E0380300E0380400E0380500D5
:103A8300941E0600000007001837080036220000C5
:103A930000000A0000000B002A220C0278370D00F8
:103AA30000000E00E0380F00E038000000000000C6
:103AB30000000000000013004A230000000015006E
:103AC300C01C1600C01C17014A231800000019006F
:103AD3009C221A009C221B002C231C01CC191D01C3
:103AE300CC191E00C6221F015C3820005E24210071
:103AF300F8382200141D230078370000000000006E
:103B0300000026010622270000002801F4212900D5
:103B13000A242A005A192B022A222C0040242D029F
:103B230040242E0000002F0000003000E42231006A
:103B330000003200000033000000340000003500B4
:103B43000000360000003700000038000000390193
:103B5300CC193A0000003B0000003C0000003D008F
:103B63000000000000002001418500000100200149
:103B7300418500000200200144850000030020016C
:103B830042850000040042016D80000005004201EF
:103B93007E80000006004201A08000000700200193
:103BA300AB800000100042018F8000001100200153
:103BB3006208000000404201A08000000080420132
:103BC300D28106000000101100000700000030330E
:103BD30000000700100030330000070001402033CD
:103BE30000000700024020330000080000002033DB
:103BF30000000C005500393300000C001C00423358
:103C03000000120055002101000014000E004222A2
:103C13000000000400002104000002040000290445
:103C23000000030400002904000005040000290427
:103C33000000000136360101000102010001030109
:103C43000001040106060502000007010034080113
:103C5300000F090401010D0100FF0E080000170207
:103C63000000190100FF1A0100011B0100FE1C01E5
:103C730000081D0200001F010001200100012102B4
:103C830000002301000F2402000026010001270188
:103C93000008280200FF2A0100072B0102402C0123
:103CA30000002D0100012E0100012F0100FF300152
:103CB3000B1D310800003A0100083B01000F3C01D5
:103CC30000013D0100FF3E040000420400004604E1
:103CD30000004A0400004E04000052040000560491
:103CE30000005A0400006A007800F223F823FE2340
:103CF3006C00F0009E23A423AA236B00F000B623DC
:103D0300BC23FE236600F000B623BC23FE2367001A
:103D13001400C823CE23D42369001400DA23E62336
:103D2300E023EE22E803622380237A236400010068
:103D330000000000982363000100000000009823A6
:103D430062000100000000009823610001000000F0
:103D53000000982370000100000000009823010375
:103D6300710301030103010301030103220302039E
:103D73000103100300030003000300030003000317
:103D830000034203000324030603000300030403A8
:103D9300120325032303250323030403040300035E
:103DA300000300034403000300032303000365032C
:103DB300210035038103000305030003000300030F
:103DC3000003250323030300710030016000110089
:103DD30070003102200350048000100061000000D5
:103DE30014006300730072006200430000001300BC
:103DF30006000000000004001200000000000000A4
:103E0300000004000400370037003C0244000000B7
:103E13000000000000006500000035008100000084
:103E2300050000008300000001017101010101018F
:103E33001101010131010101010180011001610141
:103E43003B0014006301730172016201430100012D
:103E5300130106013D0135000401120100010001B7
:103E63000001000104010401330133013C01440159
:103E730032013600000100016501000135008101B6
:103E8300000105018201830100010304710402049E
:103E93006004110470040204020401040204100407
:103EA300610400041404630473047204620443048D
:103EB30000041304060400040004040412040004B0
:103EC300000400040004510464000004000400041E
:103ED30044040004000400040004650400043504E1
:103EE30081046400050400048304000403027102D6
:103EF300300160021102700201020202020280021A
:103F0300100261023A00410063027302720262020C
:103F130043020002130238000002000204021202EC
:103F2300000200020002000204020402370037000C
:103F33003C02440200023900000200026502000252
:103F4300350281020002050282028302000236006A
:103F53000100060000000F00000000000000000048
:103F63000000000003FFFF00000403FFFF0000FF49
:103F7300FF0FF4010005C4040320000100000B003F
:103F83000000000000000003010F0000000000001B
:103F9300000000000000000000000000000000001E
:103FA3000000000000000000000000006625A225BC
:103FB3006C2594247225A8257225B425782594248C
:103FC3007225A8257E259424842594248A25942467
:103FD30090259424962594249C2594240000000085
:103FE30000000000000000000000000000000000CE
:103FF30000000000000000000000000000000000BE
:1040030000000000000000000000A828130054284E
:104013001F005A281F8060280100A82802001639B3
:104023000300E2270400E8270500EE270600FA272D
:1040330030001828310012283200242833002A289F
:10404300350030283400362836003C281100482833
:1040530014004E2815000C28FFFF00000A00000082
:10406300020000000400000008000000100000002F
:10407300200000004000000080000000000100005C
:10408300000200000004000000080000001000000F
:10409300002000000040000001A63006D03008CA0E
:1040A300300BE83010BE2D02AC3005BE3007B23005
:1040B3000C8E300D9A3064BA2BFF000007ECFDFD27
:1040C300FDECDCDCCCBCACAC9C9C8C7C7C6C6C5C7C
:1040D3005C5C4C4C3C3C2C2C1C1C03EAF5E5D5D514
:1040E300C5B5A5959585857575656555554545355D
:1040F30035252515150500160F00000B150B0200BD
:1041030002220F3300000E5A6967426565416C6CE9
:1041130069616E6365303901030507090B0D0F00F3
:10412300020406080A0C0D000119161816161823A6
:104133000300303017181921301B1D1F3030301683
:10414300181920231A1C1E3000393D3F373C3C36DA
:104153002C442D00034A49434E181A2505020C0E20
:10416300020B040B0A0708000F02040201010101FC
:10417300090200BE040AE80300000E00E803000081
:1041830000007F0005030404001E10030A0C10083E
:104193000C280800040903010C0508151A09FFE09F
:1041A30004124A22A2E792AF22E4F0A3F0A3F02282
:1041B300A31241ACA3F0227F0C021216E0F508E42F
:1041C300F509F50AF50B227401F090051CE0640F64
:1041D3002274091215197F04021216A3A3E024F511
:1041E300C394132290053C126D127A147B0022C0F3
:1041F30082C083901CF37472F0A37434F0A37484AC
:10420300F0A37434F0901CF7745AF0A37434F0A341
:104213007454F0A37434F0A37490F0A37434F0A333
:104223007496F0A37434F0A3748AF0A37434F0A3E7
:104233007442F0A37434F0901D037466F0A37434D5
:10424300F0A3746CF0A37434F0A37460F0A374341B
:10425300F0A3749CF0A37434F0901D1412629F6059
:10426300061265091220FE901D111259CB7408F035
:10427300A3E4F0A3F0901DB4F0901D16F07C0BFDA9
:10428300F97A177B1D12204A7C0B7D0079007A2274
:104293007B1D12204A0259D474F7120E6274F7126E
:1042A30015FCEAFEEBFF1257F27405124368740320
:1042B300F0EE2402FAE43F124342242DFCE43FFDD6
:1042C3008C828D831244801243516008124BCA744E
:1042D300FFF0A3F0EE242BE43F1C1CFD8C828D83A6
:1042E300A3E0C0E08A828B83125803D0E0124351CB
:1042F30088828983125FFB2403126ADC1222FC7416
:10430300081218937403F090053112131D740212EE
:1043130015DE7903EEFAEFFB12362E74021215192D
:10432300E9F5087007EEFAEFFB123514A9087409D2
:10433300024BDAF582E43FF583127747125FF0FB15
:104343008A828B83124360E8F0A3E9F0EE22126DB8
:1043530030124360E8F0A3E91272ACE02212444B3E
:104363008A828B8322F0A3E4F012437022EE240DA1
:10437300F582E43FF5832274F1120E62EAFEEBFF4D
:104383008C088D09890A1244558A828B8312444B07
:10439300740F12189312446EE824FF18E934FFF9DE
:1043A30088828983E50A12446090053612445D9041
:1043B300053512445D741112189312446EEE2404F1
:1043C300FCE43FFD880B8A828B83E0F50C8C828DA5
:1043D30083E0250CC3950B126D2CE8F0A3E912576B
:1043E3005FA3A3A3A3A3A3A3A3E064037008125A28
:1043F300BBF0A3E4800312476112436B7409F075A9
:104403000C17750D1D750E00780C12150212475509
:1044130012203E7403121519750CFF750DFF780CED
:10442300121506AC08AD097903EEFAEFFB12362E2E
:104433007402121519E9F5087007EEFAEFFB12354D
:1044430014A9087F07021216E024FFF8A3E034FF43
:10445300F922EE2402FAE43FFB2212448012446460
:1044630022F0E824FF18E934FFF922E0F50CA31247
:10447300448012446488828983E50CF022E08882B8
:10448300898322C082C083901D33E0C39408400413
:1044930074078001E08A828B83F033333354F8F955
:1044A3000259D474F0120E62EAFEEBFF890C8C0EF3
:1044B3008D0F750A00A2AFE433F50BC2AF901D2D2B
:1044C300803F12458E503712459F64037030EE24AF
:1044D300F9FEEF34FFFF850882850983A3A3E02457
:1044E30005FCA3E03400FDEEFAEFFB1222FCEE2400
:1044F300FF1EEF34FFFF7410250AF50A150C12573F
:104503002C127743E50C6006E508450970B4E50B0A
:10451300A2E092AFA2AFE433F50BC2AF901D2D80A2
:104523002C2402FAE43509FB8A828B83126D1B2447
:1045330006F582E438F5831245AC8A828B831245F3
:1045430094A3A31245AC050A150C12572C1257411C
:10455300602212459F640270F112458EE50840C146
:1045630012488FA2E550E3850E82850F837401F014
:10457300E50C70D6E50BA2E092AF8E828F83E50A3D
:10458300F0EE24FFFAEF34FFFB803512489AA2E6DF
:104593002212459822127110A3A3A32285088285B3
:1045A300098312710A12674422E08E828F83F0EE30
:1045B30024FF1EEF34FFFF221236FA74041215197A
:1045C3007F0802121674EC120E6274F51215FC8940
:1045D300138A128B0F851882851983E4F004121550
:1045E300D6123424E9F890051BE0292434F508FA9F
:1045F3007B0012205C8A0A8B0BAE0AAF0BEE4F7066
:1046030003024749EE2402F50AE43FF50BA808EE3E
:1046130028F8E43FF9850A82850B8312434A240470
:10462300F510E43FF511851082F583E4F090051B46
:10463300E0FCF8C3E498F895E0F9850A82850B83DA
:10464300E028F508A3E039F5099005191269D47536
:104653000E00780C1215027D00AA08AB0912203E49
:104663007403121519AC18AD197401121893E0F9FB
:10467300E50824FFFAE50934FFFB12342A8A828B0A
:1046830083E4F0EA24FFF508EB34FFF509E50FC4F2
:1046930054F0F9901DB5E0C4333354C0F8900515B8
:1046A300E0A2E0E43313134849440F124769E512CB
:1046B300C454F04513850882850983F0A808850A48
:1046C30082850B83E0FA851082851183E02AC398E3
:1046D300F0850A82850B83E8F0A3E509F0124761B0
:1046E30012436BE4F0740A121893E4F07508227510
:1046F300091DF50A780812150212475512203E7457
:1047030003121519851882851983E06009EE240EBA
:104713001258884408F0123616E9F9E4F508F50949
:10472300780812150674041215DEEEFAEFFB123642
:104733002E7402121519E97006EEFAEFFB800BEEE8
:10474300FAEFFB1220627A007B00740B1215190238
:1047530041BA7C0B7D00EE2418FAE43FFB2212578A
:10476300F6E4F0A322E085088285098312477322C9
:10477300F01269A82274F3120E628A0A8B0BA2AF9D
:10478300E433F50CC2AF750800750900901D2D8048
:104793002C1249B65024850A82850B83A3A3127B6E
:1047A300708E828F83A3A312650C12361CE9600AF4
:1047B3001247DCC2E6F08E088F091249AB124C6433
:1047C30070CFE50845096006124896D2E6F0E50C7D
:1047D300A2E092AF7F050212161247E0221269C1CE
:1047E300E02274F0120E62EAFEEBFF8C0C8D0D7565
:1047F3000E00A2AFE433F50FC2AF750800750900D0
:10480300901D2D8020850A08850B09124896D2E455
:10481300F0E50812488FD2E7F0E50A24FBF582E5BC
:104823000B34FFF583E0F50AA3E0F50BE50A450B2E
:104833006043E50A125617350BF583E0A2E750D91A
:10484300850A82850B83A3A312131DAC0CAD0DEE59
:10485300FAEFFB1236227402121519E960BBE50860
:10486300450960A1E508240D1248A26401700612EF
:1048730048ABD2E4F0E50FA2E092AFE5084509604A
:104883000612350E750E01A90E0245C312564112CA
:1048930048A52212489A22E50824111248A222F5BB
:1048A30082E43509F583E022850882850983127144
:1048B3000AE02274F2120E6274FE1215FC750C00EB
:1048C300750D00851882851983E4F0A3F0A2AF3338
:1048D300F50AC2AF901D2DE0FEA3E0FF8035EE2464
:1048E300FBF582EF34FF127741780C121506EEFCCC
:1048F300EFFD7A2D7B1D1220927402121519EEFC26
:10490300EFFDAA18AB19122080AE08AF09901D3332
:10491300E014F0EE4F60271249B6501DEE240BF859
:10492300E43FF988828983E024FFF0A3E034FFF0B9
:104933008882898312629F60A51249A78099E50A3C
:10494300A2E092AF901D33E0603190051CE0640F4C
:104953006006901DB4E070237A0B7B1D123706901E
:1049630085271213197A0B7B1D1236FA740412155C
:1049730019800874F0125BF2123502AA18AB1912EF
:1049830020868A0A8B0BAE0AAF0BEE4F60131234EC
:10499300361247DCA2E28E828F83A350D674E9805D
:1049A300D4024C6C8E0C8F0DEE24FBF582EF34FF9A
:1049B300F583221247E0A2E72274F7120E62EAFEA1
:1049C300EBFF123436125800123921E964019005C5
:1049D30038700AE02401F8A3E034008004E0F8A36F
:1049E300E0F9125E4E1261F7901D33E070219005DD
:1049F3001CE0640F70197A0B7B1D12370690852714
:104A03001213197A0B7B1D1236FA7404121519A9A5
:104A1300A8C2AF901D33E004124A22A2E7800DF032
:104A2300E9A2E7E433F8E922E508A2E092AF025CE9
:104A33008E74F7120E62EAFEEBFF124A69F012342B
:104A430036EEFCEFFD7A2D7B1D12208CA9A8C2AF98
:104A5300901D331241A290051CE0640F7005790884
:104A63001235CE025C8E1247E0C2E42274F7120EB6
:104A73006274EA1215FCEAFEEBFF900515E0604054
:104A83008518828519837401F0121893E4124B413F
:104A9300121893AA82AB831222FC8E828F83124850
:104AA300B1C0E0740A121893D0E0126D41740B1276
:104AB3001893AA82AB83123646AA18AB19122A9A04
:104AC3007416024BDA74F7120E62EAFEEBFF12342D
:104AD30018E9F974DC69601E74DD69601974E469AE
:104AE300601474F369600F74DE69600A74DF6960CF
:104AF3000574DB697007EEFAEFFB1235D4025C8EA6
:104B030074F7120E6274EB1215FCEAFEEBFF8518C4
:104B1300828519837406124B41121893AA82AB83C0
:104B23001222FC126D46740A121893AA82AB8312E6
:104B33003646AA18AB19122A9A7415024BDAF0EE0C
:104B43002413FCE43FFD74022274F7120E6274F71F
:104B53001215FCEAFEEBFFEE242D12588860651255
:104B63005419AA18AB191222FC740812189374036F
:104B7300F090053112131D124BCA12131D900544F8
:104B8300E0F974041215DEEEFAEFFB12341E74041E
:104B9300121519E9F974DC69602374DD69601E7408
:104BA300E469601974F369601474DE69600F74DF7B
:104BB30069600A74E869600574DB697007EEFAEFEF
:104BC300FB1235D4024331EE124BCF22242BF58254
:104BD300E43FF583227403121519025C8E74F212FA
:104BE3000E628A088B09750C00750D00750AE7A221
:104BF300AFE433F50BC2AF901D2D80031249A7120A
:104C03004C6460351249B650F3125885640170EC58
:104C1300EE242FF582E43F124E13E06870DE780C29
:104C2300121506EEFCEFFD7A2D7B1D122092740205
:104C3300121519901D33E014F0E50BA2E092AFEECC
:104C43004F6013EEFAEFFB12343679F0EEFAEFFB16
:104C53001235D4750A00A90AAA08AB091235D48003
:104C63000DE0FEA3E0FFEE4F2274021215197F063A
:104C730002121674F4120E6274F71215FCEAFEEBBC
:104C8300FF8E828F83A3E064F37003024D208E8234
:104C93008F83A3E064DF7003024D208E828F83A392
:104CA300E064E860788E828F83A3E064DB606E1239
:104CB3003478E9F508705EEE240E125888605612B7
:104CC3004D2A1234C0EA4B604C7408121893124DEB
:104CD3003412131D7508FF7509FF78081215068E27
:104CE300828F83A3A3A3A3A3A3A3A3E0F9740412B2
:104CF30015DE12341E7404121519E9F50874F365F0
:104D030008601274DF6508600C74E8650860067457
:104D1300DB6508700F8E828F83A3E508F0EEFAEF50
:104D2300FB1234840241D4EE240FFAE43FFB7909E9
:104D330022740212750974FFF0A3124D4122124D21
:104D43004522126004A3A32274F5120E628A088B13
:104D5300097E008A828B83A3A3A3A3A3A31241DEAC
:104D630040027EE88A828B83A3A3A3A3A3A3A3A366
:104D7300A3A3E0C3941040047EE880138A828B834C
:104D8300A3A3A3A3A3A3A3A3A3A3E0640F600A9075
:104D93001D91E0540870027EE8EA240BF582E435A5
:104DA30009124E13A3A3A3A3A3A3A3A3E0C39850E1
:104DB3000CEA240B1248A2640F60027EE8900535CA
:104DC300E0F47003A3E0F470027EEC7A237B00121C
:104DD30020F8901D1412651C901D1412629F602907
:104DE300850882850983A3A3A982AA8389088A09DE
:104DF300750A0078081215027C237D0012650912DA
:104E0300203E740312151980027E1AEEF90276AA67
:104E1300F583E0F88A828B83A3A32274F5120E62D2
:104E2300EAFEEBFF8E828F83A3A3A3A3A3A3A3A373
:104E3300E090051C1273EC9005371273D29005179E
:104E43001273F1901DB5F0F9121B34901DB5E0609B
:104E530018EE2404FAE43FFB7950121B1CEE2406DF
:104E6300FAE43FFB79E1121B1C901DB41241CA60A6
:104E730004740180027400901D161273D812150277
:104E83007C0B7D007A177B1D12203E7403121519CB
:104E9300EE2418F508E43FF50978081215027C0B97
:104EA3007D007A227B1D0276A274F7120E62EAFE5F
:104EB300EBFF8E828F83A3E0700612650912347EA6
:104EC3008E828F83742C125BF21235E0025C8E7437
:104ED300F7120E62EAFEEBFF901D1412629F600D43
:104EE300126509901D14E4F0A3F01220FE8E828F48
:104EF300837408125BF2122A9A025C8E74F6120E05
:104F030062901DB4E06013901D16E0700D124F20E7
:104F1300123430EA4B600312351402704C900517BB
:104F2300E0FB900537E0FA90051CE0F92274F412D7
:104F33000E6274E71215FCEAFEEBFF750B018E821D
:104F43008F83A3A3A3A3A3A3A3E0A2E25068EE24A9
:104F53002BF582E43F127B6E124FEE12343CE97064
:104F630055908360E064017005750B008048124F13
:104F7300F61215027C0B7D0074111215D612203E19
:104F83007403121519123616E9FA740E1215CE8827
:104F9300088909780812150675083075090078081C
:104FA300121506124BCA12131D126CE27901123646
:104FB3003474061215198518828519837410124BDF
:104FC30041121893AA82AB831222F0124BCA126DBC
:104FD3000E740B1218931261F7740D121893E50BEC
:104FE300125A65122A9A74190241D6EE2413FAE46E
:104FF3003FFB22EE24081273E022C082C083901D7F
:10500300B5E060031236880259D4C082C083901D74
:10501300AC74F3F0A3741CF0A374F7F0A3741CF046
:10502300A37403F0A3741DF0901ECD748DF0A374CC
:105033003EF0901D967412F0A37434F0901D3874F2
:1050430048F0A37434F0901D3A744EF0A37434F016
:10505300901D91E044028001E4F00259D4C082C063
:1050630083EAFCEBFD7903026070C082C083EAFC33
:10507300EBFD7905026070C082C08379080271DD9F
:10508300C082C08374FE1215FC901D4074FCF0A313
:105093007434F0901D4274F6F0A37434F0800D7AEA
:1050A3002D7B1D122086125A5B123604901D2D1281
:1050B300629F70EB901D2F12629F600F7A2F7B1DF2
:1050C300122086125A5B12360480E9901D2DE4F0FB
:1050D300A3F0901D331241AD7402800274111215B6
:1050E300190259D474F6120E62E9FF744B29F58242
:1050F300E43441F583E493FEFA7B0012205CEA4B2F
:105103006011EA2E1261ED8A828B83A3A3A3A3E429
:10511300F0802C7A027B0012205CEA4B601D743510
:105123002FF582E43441F583E4938A828B83F0A3E1
:10513300741AF0901D8CE0F91220687A007B00024B
:10514300704CE9FC740629F8EAA2E0501EE875F0F9
:105153000A84E5F0F96014740A28C399F8E9C39442
:10516300054004740A28F8740B28F8ECC394134020
:10517300047A1480027A06EA2879002409F8500197
:10518300097A0A7B00120AE3E8F90214E6C082C036
:1051930083901D91E05402600A122AA0E960047909
:1051A30001800279000259D4C082C083901D91E02E
:1051B30054026016901D33E0700C12629C600BE089
:1051C300C812573950047901800279000259D4C0BA
:1051D30082C08390835DE0F8901D35E0C39850054D
:1051E30012205C80047A007B000259D4C082C08301
:1051F30012360479000259D474F7120E6274FE1247
:1052030015FC851882851983EAF0A3EB12536AA370
:10521300A3A3A3A3E0600A14606024FE60690252A2
:10522300EB90051CE0640F60181235DAE970128503
:10523300188285198312650C901D3C12580312398C
:1052430021900544E0C0E0851882851983125FCE62
:10525300D0E012536A7414127505127B707A2F7B97
:105263001D122080A8A8C2AF901D35E0041265224C
:1052730079201235CE7402024BDA851882851983A0
:10528300127112741580D085188285198312534DBB
:10529300A3A3E06053851882851983E02402F8A351
:1052A300E03400F988828983127943E0C0E08518ED
:1052B30082851983E0FCA3E0CC2406F582E43CF567
:1052C30083D0E0126D4E8882898312651C85188213
:1052D30085198312563585188285198360131253F5
:1052E30052600512535A4043AA18AB191236048070
:1052F3008412535260F212535A501C125749FA85C2
:105303001882851983125354F8746B1261E834417F
:10531300F583E4936A6014851882851983125352C6
:10532300640870C4125749640870BD1257491412B7
:105333005372240AC0E0851882851983125803D05A
:10534300E01253720402525AE0F8A312601B22E0E7
:10535300F8A3E012537922851882851983126D1FF1
:1053630012537AC3940A22125384F5838882221239
:10537300538412537922C82406F582E438F583E076
:1053830022127509E0F8A3E022C082C083901D4475
:1053930012629F6008127113123921800279000290
:1053A30059D474F7120E62EAFEEBFF1243707401D4
:1053B300F0EE2430F582E43FF583126A7C12434A0F
:1053C3002432125888C0E0EE2413F582E43FF583BB
:1053D300D0E0F0EE2433125888C0E0EE2414F582B6
:1053E300E43FF583D0E0F0EE242CF582E43FF5832F
:1053F30012131D125419EE242E125888F912362E48
:105403007402121519E9F5087007EEFAEFFB12356D
:1054130014A908025C8EEE2423FCE43FFD22C08223
:10542300C0831235DAE960047920800279010259D8
:10543300D4C082C083EA1256171254D8D2E0025065
:105443005CC082C0831254D2640170111254DD40D7
:105453000C8A828B83A3E0F91235D4806FEA24107F
:105463001254D5A2E650128A828B83A3E0F9901DD1
:105473003E12580312392180531254D26401700D25
:105483001254DD50088A828B83743080368A828B73
:1054930083A3E0641B8A828B83700474228024A319
:1054A300E0700D1254D2F874401261E83441800B5D
:1054B3001254D2F874351261E83441F583E4938AC7
:1054C300828B83F0901D8CE0F91220680259D4EA94
:1054D300240DF582E43BF583E022EA1256413BF5C5
:1054E30083E0A2E32274F7120E62E9FE12629C705B
:1054F3000302560EEE6011741B6E7013E0C8125651
:1055030011640570030255D9127102E40255DD746A
:10551300E96E706212562D700B122AA6E96005120D
:105523005647606279EE121A9E901D3612562A90E3
:105533001D36603B12564A901D36700B12562A14C4
:10554300F0121C5402560E125635C2E7125755126A
:1055530056116403700C126D1812561712537FD232
:10556300E2F079ED121A9E12561D1239218075123E
:10557300710574E9806474E16E703E122AA6E960D5
:1055830055125647705090053EE0C0E0126D182446
:1055930012F582E438F583D0E0F090052DE0C0E009
:1055A300901D3612534B12534BD0E0F090052DE073
:1055B30004F07901121C3C8052741C6E7018901D0B
:1055C3003612650C901D46125803123921901D3670
:1055D300E4F0A3F08035127102EEF0901D361265EF
:1055E3000C123502126D18126CEAE05480601090B0
:1055F3000544E0F9121B58900543E0F9121B4C9047
:105603001D36E4F0A3F079101235CE025C8E240D22
:1056130012537C222411F582E422901D3612651068
:10562300901D3A12710C22E0F8A3E0C82412125321
:105633007C22E0F8A3E0C812564112537F222410C3
:10564300F582E422901D36126D1F126CEEE05404B5
:105653002274F4120E62750A00750B00A2AFE433D4
:10566300FFC2AF12629C6003025711125800123935
:1056730021E94410F8901D2D800985080A85090B3E
:1056830012572C125741700302571112489658684B
:1056930070E8780A121506AC08AD097A2D7B1D1245
:1056A30020927402121519901D36E508F0A3E5093E
:1056B300125755125739405D901D34E014F0EFA294
:1056C300E092AF901D36E0240EF8A3E03400F98891
:1056D3000889098882F58312650C901D3612574F8D
:1056E300F91234C6E9901D31F012575DE0548090F1
:1056F3001D366026126D1B241312537CF9121B589E
:10570300126D18241412537CF9121B4C8018EFA24B
:10571300E092AF8011901D3380A1125635A2E1B300
:10572300E433F9121C3C0241D9E50824FBF582E578
:105733000934FFF58322241112537CA2E722127746
:1057430047E508450922851882851983124598A3E0
:10575300E022F0901D36126D1F22A3E4F08508822B
:105763008509832274F7120E62EAFEEBFF1235FEFF
:10577300EE2410125888A2E3400C1258856401707D
:105783000590835B800390835CE0F9EEFCEFFD7A88
:105793002D7B1D122098E96046EEFAEFFB901D4029
:1057A300125803123921EE240E1258885404702023
:1057B300A8A8C2AF901D34E004126502FAE8A2E77C
:1057C30092AF1257F2A3E05401702112350E801CE0
:1057D300EEFAEFFB901D38125803123921800D8E1B
:1057E300828F83A374F1125BF2123502025C8E1274
:1057F30057F622EE240EF582E43FF58322901D42F4
:1058030012710C22C082C08312350E0259D474F770
:10581300120E62EAFEEBFF7900901D91E0540270D4
:105823000CEE24301258885404600279E8901D91DC
:10583300E05460700CEE24301258885402600279F0
:10584300E88E828F83A3A3A3A3E0F8908361E0C3D0
:1058530098500279E8EE242E125888700CEE242B0F
:10586300125888700479F5800BE970051234F0E959
:10587300F9E96007EEFAEFFB1235D4025C8E34FFD0
:10588300F509EE240DF582E43FF583E022C082C0E2
:10589300838A828B83740DF0122A9A0259D4C082B0
:1058A300C0838A828B83E4F0A3F0EA24301254D5B8
:1058B300540490835B7012E0F8901D34E0C3984069
:1058C3001279F11235D40259D4E0F8901D33E0C3B4
:1058D3009850EE901D8CE0F912206880E974F6125E
:1058E3000E62E9FE244CFAE43400FB12205CEA4B1E
:1058F3006012EE8A828B83A3A3A3A3F0EA244C1243
:1059030061ED80047A007B0002704CC082C08390FA
:105913001D48745CF0A37435F0A3748CF0A3743544
:10592300F0A37462F0A37435F0A37468F0A3743524
:10593300F0A37486F0A37435F0A3747AF0A37435DE
:10594300F0A37474F0A37435F0A37492F0A37435C8
:10595300F0A37498F0A37435F0A3749EF0A3743588
:10596300F0A374AAF0A37435F0A3746EF0A3743596
:10597300F0A37456F0A37435F0A37450F0A37435F8
:10598300F0901D647480F0A37435F0A374A4F0A3A5
:105993007435F0A374BEF0A37436F0A374B0F0A30F
:1059A3007435F0A374B6F0A37435F0901D88E4F059
:1059B300901D8BF0901D741259CB7402F0901D7DD5
:1059C3001259CB740102505C74CEF0A37435F0A36A
:1059D30022D083D0820214E674F5120E6274F1129F
:1059E30015FC8518828519837402F07401121893CB
:1059F300E9F060047AFF7BFF740212189312651CAE
:105A030075088075091D750A0078081215027C0B4C
:105A13007D007407121893AA82AB8312203E74038D
:105A2300121519AA18AB19122A9A740F0276A774C1
:105A3300F7120E6274FD1215FC85188285198374A2
:105A43000AF07401121893E9F07402121893EA121F
:105A53005A65122A9A024BD8851882851983EAF06F
:105A6300A3EBF0AA18AB192274F6120E6274F712A4
:105A730015FCEAFEEBFF125ABB1243687402125B79
:105A8300E3AA18AB191222F0EE242E124336243067
:105A9300126AE912150674021215DE79831A1AEFD7
:105AA300FB12362E7402121519E9F5087007EEFA87
:105AB300EFFB1235140270451257F674012274F08D
:105AC300120E621275901218247808790C120CFBCE
:105AD30078081214FE7A777B1D0245BB74F4120E0C
:105AE3006274C61215FC90051CE0640F60108518E3
:105AF30082851983742E125A651235E080277A6ED7
:105B03007B1D1237061241E7120AEB88088909E464
